:100000000C940B020C9452020C946D020C9452024C
:100010000C9452020C9452020C94D6190C94520275
:100020000C9452020C9452020C9452020C94520200
:100030000C9452020C9452020C942F1A0C945202FB
:100040000C9452020C9452020C9452020C945202E0
:100050000C9452020C9452020C9452020C945202D0
:100060000C9452020C9452028A0F8A0FBC0FBC0FE0
:1000700009102710481148113210C710D810D81095
:100080003811481148114111E811E811FA11FA111B
:10009000F111FA11FA11FA11E811E811F611FA1139
:1000A000FA11F6112B0014001A00080015001700B1
:1000B0001C0018000C00120013004C002900040062
:1000C0001600070009000A000B000D000E000F00CB
:1000D00033003400E1001D431B0006001900050039
:1000E000110010003600370038442800E000155099
:1000F000E300E20001512C002A000251500051009F
:1001000052004F0035021E021F022002210222026D
:10011000230224022502260227024C0000000000D0
:10012000000000000000000000002D022E02000070
:10013000000000003A003B003C003D003E003F0054
:100140004000410042004300440045000000000020
:10015000000000000100000000000000000000009E
:100160000000000035001E001F00200021002200BA
:10017000230024002500260027004C00000000007A
:10018000000000000000000000002D002E00000014
:10019000000031003A003B003C003D003E003F00C3
:1001A00040004100420043004400450000000000C0
:1001B000000000000000000000000100000000003E
:1001C000000000000000000000000000000000002F
:1001D00000002302210200000000000000000000D7
:1001E00000004A004D0000005000510052004F0036
:1001F00000000000000000000000000000000000FF
:1002000000000000000000000000000000000000EE
:1002100000000000000000000000000000000000DE
:1002200000000000000000000000000000000000CE
:1002300000000000000000000000000000000000BE
:1002400000002F003000000000002F0230020000EC
:10025000000000000000000000000000000000009E
:10026000000000000000000000000000000000008E
:10027000000000000000000000000000000000007E
:10028000000000000000000000000000000000006E
:10029000000000000000000000000000000000005E
:1002A0000000000000000000000046000000000008
:1002B000000000000000000000000000000000003E
:1002C000000000000000000000000000000001002D
:1002D000000000000000AE0000000000BC00AA000A
:1002E000A900BB0009023B00020100A03209040082
:1002F0000001030101000921010100012240000762
:100300000581030800010904010001030000000940
:100310002101010001227B0007058303080001126F
:1003200001100100000008C016DB270200010200D6
:10033000010C0350006C00610069006400000016AD
:100340000364006D0039007200650063006F007285
:10035000006400730000000403090405010902A100
:100360000185020901A100050919012908150025C7
:1003700001950875018102050109300931158125B2
:100380007F95027508810609381581257F950175CD
:10039000088106050C0A38021581257F950175082C
:1003A0008106C0C005010980A101850319012AB792
:1003B00000150126B700950175108100C0050C09D4
:1003C00001A101850419012AA002150126A00295A8
:1003D0000175108100C005010906A101050719E09A
:1003E00029E7150025019508750181029501750819
:1003F00081030507190029FF150026FF00950675E2
:1004000008810005081901290595057501910295D6
:100410000175039103C011241FBECFEFD8E0DEBFEA
:10042000CDBF04B603FE27C080911C0390911D032D
:10043000A0911E03B0911F038730904BA740B04B93
:10044000D1F410921C0310921D0310921E031092FF
:100450001F0314BE84B7877F84BF0FB6F894A89596
:1004600080916000886180936000109260000FBEF0
:10047000E0E0F8E3099511E0A0E0B1E0E6EEFBE38F
:1004800002C005900D92A838B107D9F723E0A8E87B
:10049000B1E001C01D92AC31B207E1F70E946F1AC2
:1004A0000C94F11D0C940000A82FB92F80E090E06F
:1004B00041E050EA609530E009C02D918227979580
:1004C000879510F084279527305EC8F36F5FA8F3F7
:1004D0000895EADF8D939D930895CF93CFB7CF937F
:1004E000DF93C3954B9BE9F74B9B10C04B9B0EC012
:1004F0004B9B0CC04B9B0AC04B9B08C04B9B06C040
:10050000C091F302C395C093F3028EC06F93C09164
:10051000F202DD27C650DD4F2F9365E54B9B03C0EC
:100520002F916F91E1CF0F931F934F9320E040E104
:100530005F9309B10C7003FB27F93F9350E03BE058
:1005400039C01C7040642F77012F5F5F1EC0406868
:1005500019B11C702F7752501FC0406409B12F771A
:100560000C70D1F15F5F00C023C0406219B12F77DA
:100570001C7091F15F5F00C025C00C7010275150B6
:1005800012F45D5F0000115027952C3F19B1C8F699
:100590001C700127015027952C3FC8F6422749932C
:1005A00009B10C7010274F73115027952C3FA8F6F6
:1005B0004695469519B11C7079F001270150279591
:1005C0002C3F98F66B5A60F3315009B1B0F600C079
:1005D00012E01CBB00271CC03B503195C31BD04010
:1005E00012E01CBB0881033C21F10B3411F1209176
:1005F000EF021981110F1213EDCF4A81441F093602
:1006000079F10D3211F0013E29F74F7009F0042FF6
:100610000093F8023F915F914F911F910F912F919D
:100620006F91CCB3C1FD5DCFDF91CF91CFBFCF91A3
:1006300018952091F802222369F31091F6021123F4
:1006400009F049C034300AF448C03093F6022093D0
:10065000F1021091F2023BE0311B3093F2023DC0F7
:100660000091F6020130BCF50AE54F7049F4309173
:10067000150134FD33C000931501CCECD2E032C03B
:10068000433059F0443091F03091D70234FD26C008
:100690000093D702C8EDD2E025C03091100334FD9D
:1006A0001DC000931003C1E1D3E01CC03091E302F0
:1006B00034FD14C00093E302C4EED2E013C005275A
:1006C00010E000C000000BB91AC0052710E0221F7F
:1006D0001DC010E021C04AE502C032ED432FC4E145
:1006E000D0E032E01AB11C605B9A0BB11AB95CE041
:1006F00020E865E320FF05270BB9279517951C3FD8
:10070000F0F66695B8F7B1F720FF05270BB92795E6
:1007100017951C3FD0F62795179517FF0527000062
:100720001C3F0BB9B0F629913A9519F7037F109148
:10073000F702110FC651D0400BB911F01093EF0220
:1007400012E01CBB08601AB1137F402F437F54E0B6
:100750005A95F1F70BB91AB94BB95CCF0C94C20694
:100760000C94C0060C94B8030C946C0481E00895BA
:1007700081E0089508950C94BA031F93CF93DF93FB
:1007800000D000D01F92CDB7DEB749835A836B8368
:100790003091B50189819A81311114C0662359F0D5
:1007A000222349F00E942117182F682F89819A81EE
:1007B0000E94CA1603C00E94F516182F69817A811B
:1007C000812F04C00E94211769817A810F900F90B8
:1007D0000F900F900F90DF91CF911F910C947E049A
:1007E000FC01262F408151816281738184810C94A8
:1007F000BD03CF93DF93EC0160E00E94F003BE01E4
:10080000DF91CF910C94BB030E9489060C94AE0338
:100810000C94B00308950E94D6110E940A042FEF91
:1008200084E39CE0215080409040E1F700C000004C
:100830000C94551A0F931F93CF93DF938C0161E0B3
:100840000E94F003EC01B8010E94B2038823F1F189
:10085000B801CE010E94ED0A8823C1F1B801CE0192
:100860000E943F0B882391F1B801CE010E946A0CCF
:10087000882361F1F8018281882309F1CB358DE568
:10088000D807C1F050F4C115FCE5DF0781F0CF3D7A
:10089000DC45A9F40E942C1919C0CC35EDE5DE0722
:1008A00061F0CD35DD4559F40E94B41708C00E94AF
:1008B0000B040CC00E94BD1702C00E94C017C801E3
:1008C000DF91CF911F910F910C94B60380E0DF91DF
:1008D000CF911F910F910895089581E008950C9490
:1008E0006D04CF93C82F0E94B4038C2F0E946F0415
:1008F000CF91089580E090E00895089520E3829FCD
:10090000C0011124FC012CE0729FE00DF11D1124A7
:10091000E60FF11DEE0FFF1FEC55FF4F85919491EF
:100920000895880F991FFC01EC51FD4F859194911A
:100930000895CF93DF930E947E040E94B105EC01DD
:100940008115904508F041C0C11580E4D80708F032
:10095000D1C0C83ED10510F5C03ED10508F0FDC09C
:10096000C83AD10578F4C53AD10508F0A2C0C13023
:10097000D10509F4F2C008F4EEC0C430D10508F086
:10098000ECC0E9C0CF3BD10508F49BC0C03CD10509
:1009900008F4E1C0CE01805C91099EC0C11590E2CF
:1009A000D90758F4C11521E0D20708F0D6C0CD3ED2
:1009B000D10508F4D0C0D065D0C0C11580E3D807F8
:1009C00008F08EC0CE019F7087C0C11595E5D9078C
:1009D00008F043C0C11524E5D20708F0A2C0C11534
:1009E00082E5D80708F5C11591E5D90708F085C05B
:1009F000CE0174E0969587957A95E1F783709C2FE8
:100A0000937021E030E002C0220F331F9A95E2F785
:100A10003C68382BCF70C695C69580E2C89FE00130
:100A20001124C22BD32B99C09E01237033278C2F06
:100A300086958695C115D34508F064C0C1E0D0E025
:100A400002C0CC0FDD1F2A95E2F720E2829FC00191
:100A50001124C82BD92BDC6880C0C11529E5D20729
:100A6000A0F4C11588E5D80708F060C0C11596E567
:100A7000D90708F070C08C2F0E9445068F71C82FCF
:100A8000D0E0DC2FCC27D06268C0C1152AE5D207A0
:100A900008F451C0CE0190568115904208F05BC019
:100AA0008D2F8F710E944506DD27D0628F71D82B64
:100AB00054C0C55AD0E0CC5BDE4FC881D0E0D064D2
:100AC0004CC0C85AD0E0CC0FDD1FCA5EDE4F099083
:100AD000D881C02DD46441C00E949104EC013DC076
:100AE000CE019927D3FF03C0EC01D86C36C0EC01CE
:100AF000D06C33C0DF70D06A30C0DC2FCC27C16F20
:100B0000D06A2BC0C1E0D0E002C0CC0FDD1F2A9517
:100B1000E2F720E2829FC0011124C82BD92BDA68AA
:100B20001CC0DC2FCC27C46FD06A17C0DC2FCC27A9
:100B3000C06FD06A12C08C2F8F700E94450694E05F
:100B4000D695C7959A95E1F7CF70D0E0DC2FCC27EA
:100B5000D069C82B02C0C0E0D0E0CE01DF91CF91B8
:100B600008958238910569F1B0F48133910509F453
:100B70006DC048F48932910509F463C08A32910549
:100B800009F469C008958533910509F455C0893386
:100B90009105B9F00895833E910569F138F4803EDE
:100BA0009105B1F0823E910509F10895863E9105C7
:100BB000A9F1873E9105B9F1843E910509F064C021
:100BC00023C02091B60220FD4FC021FD4DC00895E5
:100BD0008091B60280FD44C08091B70280FF44C07E
:100BE0008091B60284FD42C083EE4DC08091B60272
:100BF00082FF38C0F5CF8091B60282FD33C080916C
:100C0000B70280FD31C0ECCF8091B70281FF32C0C6
:100C10008091B60284FD2AC087EE35C08091B6026D
:100C200083FF26C0F5CF8091B60283FD21C080915D
:100C3000B70281FD1FC0ECCF8091B60285FD1CC0BC
:100C40001DC08091B60285FD19C016C08091B60204
:100C500086FD16C017C08091B60286FD13C010C075
:100C600089E311C082EE0FC080EE0DC080E00BC0A2
:100C700086EE09C084EE07C089E205C085E303C0A3
:100C80008AE201C081E390E008959091B60292FF5C
:100C90000DC0282F2871283019F4877F846006C082
:100CA000282F2471243011F48B7F886093FF0DC0AE
:100CB000282F2871283119F4877E846106C0282FD7
:100CC0002471243111F48B7E88612091B70220FFBA
:100CD0000DC0382F3871383019F4877F816006C015
:100CE000382F3171313011F48E7F886021FF0DC0B3
:100CF000282F2871283119F4877E816106C0282F9A
:100D00002171213111F48E7E886194FD877E0895D2
:100D100008950E948418811102C00E942C190E941B
:100D20008F18809321020E9497189093B7028093A6
:100D3000B6020E9488060E949318682F70E080E037
:100D400090E00E94CC1560910C0270910D02809190
:100D50000E0290910F020C940416E82FF0E0EE0FB3
:100D6000FF1FE054FD4F808191810895089580EA2E
:100D70008A95F1F7089500C008950C94B706089578
:100D80000C94BF060C94BF06F894E82FE295EF7020
:100D9000F0E031A1282F2F7081E090E001C0880F92
:100DA0002A95EAF7982F9095932391A392A1892BE6
:100DB00082A3789408950F931F93CF93DF9384E3D6
:100DC0000E94C40685E30E94C40683E30E94C40611
:100DD00084E90E94C406C7E4D1E003E511E08991EB
:100DE0000E94C4060C171D07D1F71092B902109289
:100DF000B8021092C1021092C0021092BB0210926F
:100E0000BA021092C3021092C2021092BD02109256
:100E1000BC021092C5021092C4021092BF0210923E
:100E2000BE021092C7021092C60284E00E94AC0774
:100E3000DF91CF911F910F910C9404047F928F92B8
:100E40009F92AF92BF92CF92DF92EF92FF920F9359
:100E50001F93CF93DF93C3E5D1E088EBA82E82E008
:100E6000B82E90ECE92E92E0F92E712C01E010E002
:100E70006E018881F894E82FE295EF70F0E021A1EF
:100E80008F70A80102C0440F551F8A95E2F7CA016E
:100E9000922F982B91A392A18095892382A3789475
:100EA0000E94BB06E7E4F1E020E030E0812C912CC9
:100EB0004191A42FA295AF70B0E090968C9190E0F4
:100EC0004F7002C0959587954A95E2F780FD08C05E
:100ED000C801022E02C0880F991F0A94E2F702C0CF
:100EE00080E090E0882A992A2F5F3F4F2C3031050F
:100EF000F9F62196F60180810E94C4060E94BD0683
:100F0000F501808191818816990621F09182808275
:100F100081E001C080E0782AF2E0AF0EB11CEA1453
:100F2000FB0409F0A5CF272D44E060EC72E088EBCC
:100F300092E00E94AD070E940804872DDF91CF91B7
:100F40001F910F91FF90EF90DF90CF90BF90AF90E7
:100F50009F908F907F9008950895FF920F931F9315
:100F6000CF93DF93F82E092F162FD72FC42F2223CC
:100F700049F081E080938C010E94081A90938B01C4
:100F800080938A0180918C018823D9F080918A0115
:100F900090918B010E94201A069798F0EF2DF02F68
:100FA000A12FBD2F80E090E04C2F50E084179507D3
:100FB00034F4219131912D933D930196F7CF109206
:100FC0008C01DF91CF911F910F91FF900895809137
:100FD000930180FF0BC06091050185E0689FB0011F
:100FE000112475956795759567952BC081FF09C08C
:100FF0006091050185E0689FB001112475956795A2
:1010000020C082FF07C06091050185E0689FB001A4
:10101000112417C0909192019923D1F0609104019D
:10102000961788F72091050185E0289F90011124EB
:10103000929FA001939F500D112470E0CA010E945D
:10104000811D6038710540F46115710519F406C001
:1010500065E070E0862F08958FE7089581E0089598
:101060008091930180FF08C06091010170E0759547
:1010700067957595679521C081FF06C06091010154
:1010800070E07595679519C082FF04C060910101F9
:1010900070E010C090919101992399F06091000146
:1010A0009617A0F780910101899FC001112470E07B
:1010B0000E94811D6038710540F46115710519F4B5
:1010C00006C061E070E0862F08958FE7089581E003
:1010D00008958D3E21F40E94E707819504C08E3E5D
:1010E00029F40E94E7078093970108958F3E21F429
:1010F0000E94E707819504C0803F29F40E94E7071A
:10110000809396010895893F19F40E94300805C024
:101110008A3F31F40E9430088195809398010895A8
:101120008B3F21F40E943008819504C08C3F29F444
:101130000E9430088093990108959FE0980F98309D
:1011400078F421E030E0A90102C0440F551F9A95C0
:10115000E2F7CA0190919501892B8093950108953A
:101160008D3F21F48091930181600BC08E3F21F46B
:1011700080919301826005C08F3F29F48091930193
:1011800084608093930108958D3E39F49091970186
:1011900097FF35C01092970159C08E3E29F4909167
:1011A00097011916BCF32BC0909196018F3E29F43C
:1011B00097FF25C01092960149C0803F19F4191677
:1011C000CCF31DC090919801893F29F41916BCF405
:1011D000109298013BC08A3F19F497FF10C0F8CFD6
:1011E0008B3F39F49091990197FF09C010929901B2
:1011F0002DC08C3F21F4909199011916BCF39FE00A
:10120000980F983080F421E030E0A90102C0440F2B
:10121000551F9A95E2F7CA0180959091950189230F
:101220008093950113C08D3F21F4809193018E7FAF
:101230000BC08E3F21F4809193018D7F05C08F3FBD
:1012400029F4809193018B7F809393018091960183
:10125000811106C080919701811102C01092920104
:1012600080919801811106C080919901811102C07D
:101270001092910108950E94081A2091960121115F
:1012800004C020919701222321F090939001809334
:101290008F0120919801211104C0209199012223EE
:1012A00021F090938E0180938D0184E991E00C945C
:1012B000B70CEF92FF920F931F93CF93DF9300D061
:1012C00000D000D0CDB7DEB786E0E4E9F1E0DE0182
:1012D000119601900D928A95E1F7E0909601F090B9
:1012E0009701009198011091990110929601109226
:1012F00097011092980110929901E11003C0FF200C
:1013000009F45DC080918F01909190010E94201A94
:10131000AC0190919201992339F02091060130E0BF
:101320002417350758F04BC0209107018AE0289F09
:10133000900111242417350718F041C09F3F19F080
:101340009F5F90939201EE2061F00E94E7071E14C8
:1013500014F09FEF01C091E0989F902D112490937D
:101360009601FF2061F00E94E7071F1414F09FEF21
:1013700001C091E0989F902D112490939701309196
:1013800096013323E1F0209197012223C1F045EB30
:101390003403C0011124992319F09093960103C0DE
:1013A00081E08093960135EB2303C001112499233A
:1013B00019F09093970103C081E080939701011188
:1013C00003C0112309F45DC080918D0190918E01BD
:1013D0000E94201AAC0190919101992339F020913B
:1013E000020130E02417350758F04BC0209103016B
:1013F0008AE0289F900111242417350718F041C076
:101400009F3F19F09F5F90939101002361F00E942C
:101410003008101614F09FEF01C091E0989F902DB6
:10142000112490939801112361F00E943008111645
:1014300014F09FEF01C091E0989F902D112490939C
:101440009901309198013323E1F0209199012223F1
:10145000C1F045EB3403C0011124992319F0909396
:10146000980103C081E08093980135EB2303C0010C
:101470001124992319F09093990103C081E080937E
:1014800099018091960181110BC080919701811182
:1014900007C080919801811103C080919901811149
:1014A0000E943B09EB82FC820D831E8386E0FE01D5
:1014B0003196A4E9B1E001900D928A95E1F7269664
:1014C0000FB6F894DEBF0FBECDBFDF91CF911F9155
:1014D0000F91FF90EF900895E4E9F1E086E0DF01DD
:1014E0001D928A95E9F71092920110929101109243
:1014F000930108950F931F93CF93DF93C42FD22F9F
:10150000FC0182818823C9F040939C010E94081A43
:1015100090939B0180939A0180E28C0F883008F0B1
:1015200057C0C77081E001C0880FCA95EAF7DF9104
:10153000CF911F910F910C94490F80919C014813FA
:1015400030C080919A0190919B010E94201A883CA2
:10155000910538F510E21D0FCD17B9F080E28C0F20
:10156000883040F4C77081E001C0880FCA95EAF75F
:101570000E94500F183028F581E09D2F977001C010
:10158000880F9A95EAF70E94490F802F0E94400F1A
:101590001830F0F4D77081E001C0880FDA95EAF7CF
:1015A0000AC080E28C0F883098F4C77081E001C0D7
:1015B000880FCA95EAF7DF91CF911F910F910C9494
:1015C000500F802FDF91CF911F910F910C94400FFE
:1015D000DF91CF911F910F9108950F939C01CB0143
:1015E000243F4CE5340731F188F4293DFCE53F0701
:1015F000D9F02A3D4CE5340779F1283D3C45A9F561
:1016000006E221EE41EE68ED7CE52BC0263FFCE5CD
:101610003F07E1F0A8F0273F3C4539F507E225EE0A
:1016200046EE67EF7CE51DC007E225EE45EE69ED6D
:101630007CE517C006E221EE40EE64EF7CE511C0C8
:1016400007E225EE44EE65EF7CE50BC006E221EEF5
:1016500042EE66EF7CE505C008E221E045EE6AED6A
:101660007CE50E947A0A80E008C0FC018281882320
:1016700019F010929C0101C081E00F910895CF9361
:10168000DF93EC01FB018281882309F41FC1C23082
:10169000FCE5DF0708F41BC1C6319CE5D90738F02B
:1016A0009E012B5F3C452930310508F010C10E9496
:1016B00097189093B7028093B602C031ECE5DE072D
:1016C00009F4C3C008F041C0C8308CE5D80709F45C
:1016D0009AC0F0F4C430ECE5DE0709F487C068F482
:1016E000C2308CE5D80709F477C0C330DC4509F077
:1016F000E3C08091B602826076C0C630ECE5DE07BA
:1017000009F46EC008F07BC08091B60288606BC09F
:10171000CC308CE5D80709F485C068F4CA30ECE514
:10172000DE0709F474C008F079C00E94D6118091D8
:10173000B602806858C0CE308CE5D80709F476C070
:1017400008F07FC08091B6028BC0CC3FECE5DE078D
:1017500009F44FC018F5C3318CE5D80709F47DC0F2
:1017600078F4C131ECE5DE0709F473C0C231DC4521
:1017700009F0A2C00E94D6118091B6028F7733C0C3
:10178000C5318CE5D80709F472C008F486C0CB3F98
:10179000DC4509F091C08091B7023EC0C115FDE55E
:1017A000DF0709F45FC058F4CE3F9CE5D90709F480
:1017B00044C008F43FC08091B70282602DC0C2309F
:1017C000FDE5DF0709F475C008F45DC0C330DD45F1
:1017D00009F072C080E06EC08091B602816003C0E3
:1017E0008091B60280618093B60266C08091B60295
:1017F00011C08091B70282608093B7025DC0809172
:10180000B6028062F0CF8091B6028064ECCF809106
:10181000B60288608460E7CF8160EECF8091B60227
:101820008E7FE1CF8091B6028D7FDDCF8091B602B1
:10183000877FD9CF8091B70218C08091B7028D7F82
:10184000DBCF8091B6028F7ECECF8091B6028F7DA6
:10185000CACF8091B6028F7BC6CF8091B602877FB8
:101860008B7FC1CF8091B7028D7F8E7FC5CF809156
:10187000B60282FB222720F991E0922790FB82F9A1
:1018800090FB83F9B0CF8091B702982F909591701B
:101890008E7F892B90FB81F9AFCF0E94D61180916A
:1018A000B60287FB222720F991E0922790FB87F967
:1018B0009ACF81E00E942E198091B6029091B702D2
:1018C0000E94A8180E94D61180E001C081E0DF913B
:1018D000CF910895CF93DF9386319C4541F5EB017D
:1018E0000E94C317982F8A81209108013091090125
:1018F000882379F09A7A81E009F480E080939D0151
:10190000911102C069E201C065E3C9010E94751925
:101910000AC080919D01811102C069E201C065E3A6
:10192000C9010E9477190E94151880E001C081E06A
:10193000DF91CF9108959093A3018093A201089520
:10194000E091A201F091A301309721F00190F08184
:10195000E02D099480E00895E091A201F091A301A7
:10196000309721F00280F381E02D09940895E091F1
:10197000A201F091A301309739F022E0DC012C9311
:101980000480F581E02D099408952091A001309103
:10199000A1012817390771F09093A1018093A0014C
:1019A000E091A201F091A301309721F00680F78128
:1019B000E02D0994089520919E0130919F012817F0
:1019C000390771F090939F0180939E01E091A201ED
:1019D000F091A301309721F00084F185E02D099466
:1019E00008950E94141A6093B1017093B20180931C
:1019F000B3019093B4016093AD017093AE018093F5
:101A0000AF019093B001089581E008950C94040D06
:101A100008950C94080D0C94080D0C940B0D0C9467
:101A2000080D0C940F0D0C94080D82E898E10E94AB
:101A30006A1A0E94130D0C94110D0E94090D0C944A
:101A4000080D0E94FF190E94DB060C940D0D6F9289
:101A50007F928F929F92AF92BF92CF92DF92EF923E
:101A6000FF920F931F93CF93DF93CDB7DEB72A97E3
:101A70000FB6F894DEBF0FBECDBF0E941E078111C6
:101A80000E94F10C35EA832E31E0932E00E010E045
:101A9000C02E802F0E94AD065C01F4016190719010
:101AA0004F016826792661147104B1F40F5F1F4F4E
:101AB0000430110569F78FEF89838A831B820E94A6
:101AC000081A8160782F9D838C8349815A816B81AC
:101AD0008D810E94DD0D3AC08091210281FD0E941E
:101AE000B606D12CEE24E394F12CC3018E219F2164
:101AF000892B29F10E94060D8823A9F0DE82CF826E
:101B0000AE20BF2081E0AB2809F480E088870E94E6
:101B1000081A8160782F9A8789874E815F8168854E
:101B20008A850E94DD0D000F111FF801EB55FE4F55
:101B300080819181E826F926F182E08207C0D39462
:101B4000EE0CFF1CFCE0DF12D0CFB0CF0E94590991
:101B50000E94A00C9091A4018917D1F00E94A00CC2
:101B60008093A4012A960FB6F894DEBF0FBECDBFB6
:101B7000DF91CF911F910F91FF90EF90DF90CF9069
:101B8000BF90AF909F908F907F906F900C94710456
:101B90002A960FB6F894DEBF0FBECDBFDF91CF916E
:101BA0001F910F91FF90EF90DF90CF90BF90AF907B
:101BB0009F908F907F906F900895DF92EF92FF92A9
:101BC0000F931F93CF93DF93CDB7DEB72B970FB64D
:101BD000F894DEBF0FBECDBFF42E052F162FE72ED3
:101BE000D82E61110E94E317FE01319686E0DF01D5
:101BF0001D928A95E9F77E2D4F2D502F612F8D2D47
:101C00009E810E948F142B960FB6F894DEBF0FBEF4
:101C1000CDBFDF91CF911F910F91FF90EF90DF909B
:101C20000895FC01808191810E9463170895CF93EC
:101C3000882309F4A4C0C82F8238C1F40E94A00CE4
:101C400081FD9DC069E380910801909109010E9486
:101C500075190E9415182FEF81EE94E021508040F5
:101C60009040E1F700C0000069E319C0833801F536
:101C70000E94A00C80FD83C063E5809108019091D3
:101C800009010E9475190E9415182FEF81EE94E04A
:101C9000215080409040E1F700C0000063E5809152
:101CA0000801909109010E947719CF910C941518A1
:101CB0008438C1F40E94A00C82FD61C067E4809169
:101CC0000801909109010E9475190E9415182FEFC3
:101CD00081EE94E0215080409040E1F700C0000088
:101CE00067E4DDCF8CEF8C0F813AD0F46C2F8091BC
:101CF0000801909109010E943F19882349F06C2F37
:101D000080910801909109010E9477190E9415188D
:101D10006C2F80910801909109010E947519C5CF1F
:101D200080E28C0F883048F4C77081E001C0880FD2
:101D3000CA95EAF70E94C617B8CFEBE5EC0FE3307F
:101D400040F4F0E0EB57FE4F808190E0CF910C948F
:101D5000C50CE8E5EC0FE73150F4F0E0EE0FFF1FA3
:101D6000E95AFE4F80819181CF910C94DB0CCD3EDE
:101D700030F08C2F0E946908CF910C943B09CF91D1
:101D80000895882309F464C0823879F40E94A00C75
:101D900081FF5EC069E380910801909109010E9472
:101DA00075190E94151869E310C08338B1F40E94B8
:101DB000A00C80FF4DC063E580910801909109015E
:101DC0000E9475190E94151863E580910801909191
:101DD00009010E9477190C941518843879F40E942F
:101DE000A00C82FF35C067E4809108019091090141
:101DF0000E9475190E94151867E4E7CF9CEF980FB1
:101E0000913A10F4682FE1CF90E2980F983050F497
:101E1000877091E001C0990F8A95EAF7892F0E9497
:101E2000CC17D9CF9BE5980F933020F480E090E059
:101E30000C94C50C98E5980F973120F480E090E061
:101E40000C94DB0C8D3E20F00E94C4080C943B09DE
:101E500008951F93CF93DF93182FEB010E94170E65
:101E6000209741F08FE99FE00197F1F700C0000053
:101E70002197F6CF812FDF91CF911F910C94C10E46
:101E8000893319F060E070E002C060E570E00C9406
:101E9000290F882321F00E94C6170C941518089565
:101EA000882321F00E94CC170C9415180895CF9226
:101EB000DF92EF92FF920F931F93CF93DF937C01FA
:101EC000062FC72FFC01D281158112951F700E9429
:101ED0009B17882399F0DD2389F08C2F807F803435
:101EE00021F080E2800F883048F082E00E9465187F
:101EF0000E949B1791E0D82ED92601C0D12CCC2E60
:101F0000C2948FE0C8228C2D90E0FC01EC5CFF4F66
:101F10000C94951D8C2F807FCF70882311F0C29573
:101F2000C07FDD2399F0CC2309F48DC180E2800FBE
:101F3000883010F0011104C08C2F0E94C61703C016
:101F40008C2F0E94D6170E9415187DC1802F0E94E9
:101F5000C10ECC2309F49CC180E2800F883010F0C0
:101F6000011104C08C2F0E94CC1703C08C2F0E943B
:101F7000DC170E9415188CC18C2F807FCF708032A7
:101F800011F0C295C07F002319F00130C9F022C0C2
:101F9000DD2371F0112341F0113031F40E94F61766
:101FA0008C2B0E94FE1774C10E94F6178C2B1DC04B
:101FB000112319F0113009F46BC10E940B1825C0D0
:101FC000DD2321F0163008F063C10EC0153008F093
:101FD0005FC11BC0DD2361F0112331F0F701858162
:101FE00080FF31C18F7085838C2F0E94490F50C1B3
:101FF000112359F0093309F037C1FFEF27EE83E0D1
:10200000F15020408040E1F72DC18C2F0E94500FED
:102010003FC18C2F86958695837019F0813061F0D1
:1020200037C1DD2321F0802F9C2F937002C080E008
:1020300090E00E94C50C34C1DD2321F0802F9C2F3D
:10204000937002C080E090E00E94DB0C29C1802FD9
:10205000DD2319F00E94690802C00E94C4080E9492
:102060003B091EC18C2F837009F045C0D11114C1EA
:10207000402F429546954770440F440F602F6F7074
:10208000862F90E0A0E0B0E0042E04C0880F991FD6
:10209000AA1FBB1F0A94D2F704FF10C00FE010E084
:1020A00020E030E004C0000F111F221F331F4A95AB
:1020B000D2F7009510952095309503C000E010E010
:1020C0009801C695C695C370BC01CD01602B712BDC
:1020D000822B932BC23049F058F4C13019F00E9482
:1020E000E015DAC00E94CE15D7C00E94F215D4C008
:1020F0000E94CC15D1C0DD2319F08C2F817001C056
:102100008695882309F4C8C0402F429546954770AC
:10211000440F440F602F6F70862F90E0A0E0B0E076
:10212000042E04C0880F991FAA1FBB1F0A94D2F760
:1021300004FF10C00FE010E020E030E004C0000F0A
:10214000111F221F331F4A95D2F700951095209535
:10215000309503C000E010E09801C695C695C370A5
:10216000BC01CD01602B712B822B932BC23049F027
:1021700058F4C13019F00E94A5168EC00E94931623
:102180008BC00E94B71688C00E94061685C0CF700B
:10219000DD2339F08C2F0E942C16802F0E94490FCE
:1021A0007BC0802F0E94500F8C2F0E944D1674C050
:1021B000023F01F128F4003F41F0013FA1F03FC090
:1021C000033FF9F0043F39F13AC0DD2341F0153007
:1021D00008F05EC08C2F8F710E94721659C01630A5
:1021E00008F056C0F7CFDD2339F08C2F8F710E9495
:1021F0002C164EC0DD23C9F38C2F8F710E944D1613
:1022000047C0DD2329F08C2F8F710E94171640C024
:102210000E9412163DC0DD2349F0CF718C2F0E9421
:102220002C1663E08C2F0E944A1832C081E00E9475
:102230006518123068F182E00E94651829C0DD231C
:1022400031F0112391F2802F0E94170E21C011232B
:1022500099F2093349F49FEFE7EEF3E09150E04043
:10226000F040E1F700C00000802F0E94C10E10C0B6
:102270004C2F4F70602FC7010E947A040E943D15B9
:102280000FC04C2F4F70602FC7010E947D0408C003
:1022900088EF8C0D843020F40E94A00C0E94710401
:1022A000DD20C9F00E94971780FD15C0F70112824A
:1022B0000E9491170E942C16C7010E948C110E9447
:1022C0009117DF91CF911F910F91FF90EF90DF90C9
:1022D000CF900C944D16DF91CF911F910F91FF90ED
:1022E000EF90DF90CF9008950F931F93CF93DF93DC
:1022F000EC01688179818A810E946E178C010E94AD
:10230000C9160E94BA15B801CE010E94570FDF917D
:10231000CF911F910F910895CF93DF93EC01988196
:1023200089812B813C81232B31F08F3F31F481E077
:102330009F3F19F403C081E001C080E080FD19C017
:10234000CE010E941A0481110CC00E949B178823A1
:1023500081F08A81882369F082E0DF91CF910C942B
:102360006518CE010E947411CE01DF91CF910C94BB
:10237000F903DF91CF91089580E090E00E94C50CB1
:1023800080E090E00E94DB0C0E94E3170E94F317AC
:102390000E9415180E946C0A0C943B098091080158
:1023A000909109010E9479190C94BC110E94D317D5
:1023B0000C94CE11E92FE295EF704E2F50E0FA0108
:1023C0003297EE30F105B0F4EC5BFF4F0C94951DA5
:1023D000803F91F018F4883E68F40EC0843F51F4B9
:1023E0000BC0883E48F0813F29F406C093FB882744
:1023F00080F9089580E0089581E008950E946317B0
:102400000E94DA110895CF93DF9300D000D01F927D
:10241000CDB7DEB70F900F900F900F900F90DF9118
:10242000CF910895CF93DF9300D000D000D0CDB7E7
:10243000DEB726960FB6F894DEBF0FBECDBFDF9194
:10244000CF9108951F93CF93DF93C091B60116E00B
:102450008091B701C81799F0D0E01C9FF0011D9F33
:10246000F00D1124E854FE4F408151816281738147
:10247000848195810E9412122196C770E9CFDF9165
:10248000CF911F9108954091E8015091E901609129
:10249000EA017091EB018091EC019091ED010C94B7
:1024A00012120F931F93CF93DF938091ED018295CA
:1024B0008F7009F05DC08091EA01882309F458C04B
:1024C0008091B6011091B7016091E8017091E90126
:1024D000C091EB01D091EC0191E06F3F09F090E0E9
:1024E000292F06E0811709F443C0209721F07F3F90
:1024F00021F030E003C031E001C0322F90E030FD28
:1025000034C0089FF001099FF00D1124DF01A85489
:10251000BE4F11963C911197371327C03C9136134B
:1025200024C012963C91129731111FC013964D9101
:102530005C9114974C1B5D0B483C5105B0F48091A5
:10254000ED018F7080618093ED01E354FE4F808137
:102550008F708061808388EE91E00E948C11DF9102
:10256000CF911F910F910C94221201968770BACFD0
:10257000DF91CF911F910F9108959F92AF92BF92DB
:10258000CF92DF92EF92FF920F931F93CF93DF933F
:10259000CDB7DEB761970FB6F894DEBF0FBECDBFE3
:1025A0008C0185E0F801DE011D9601900D928A955F
:1025B000E1F7F80140815181E2809091E80160915A
:1025C000E9012091EB013091EC012115310531F049
:1025D0006F3F31F481E09F3F19F403C081E001C0F7
:1025E00080E0F82FF1709F2E80FD46C1F801A38096
:1025F000B48088EEC82E81E0D82EF090EA01F50173
:10260000E21BF30BFF2009F4DFC08091ED01E83CF1
:10261000F10508F09BC0282F207F09F052C0561307
:1026200013C0491311C0FE2CE1100EC08F708061E1
:102630008093ED010E944312C6010E948C1180918B
:10264000ED01F801858358C1AB2831F05F3F31F4CB
:1026500081E04F3F19F403C081E001C080E080FDBC
:1026600003C081E08E2502C080E090E0F82FF17079
:10267000FF2E80FF1CC08091B6012091B70136E08B
:10268000821709F417C190E0389FF001399FF00DCF
:102690001124E854FE4F6181561306C06081461331
:1026A00003C06281E61203C001968770E9CFFE2C59
:1026B000EE2009F421C18091ED0181608093ED014C
:1026C0005AC0561306C0491304C0E11002C0F801F5
:1026D0009FC04D875E878D859E850E94FE11882351
:1026E00079F1EE2069F12091ED01822F82958F70B2
:1026F00090E0029774F08091E8019091E901988749
:102700008F831986BB86AA862C87CE0107960E94E6
:102710008C1186E0F801A8EEB1E001900D928A9547
:10272000E1F70E9451120E9443120DC0561729F181
:102730004D875E878D859E850E94FE1181112CC07C
:10274000C8010E948C11FF24F394D6C0282F207F4B
:1027500069F77A2DB98AA88A6E2D89890E94031299
:1027600088EE91E00E948C1186E0F60111928A9524
:10277000E9F70E944312F12CBFC04913D9CFE110F1
:10278000D7CFF8018583C8010E948C1186E0F6013D
:1027900011928A95E9F7B0C0EE2091F22091ED01F7
:1027A000822F82958F7090E002970CF4B2CF8091C7
:1027B000E8019091E9019A8389831B82BD82AC82F2
:1027C0002E83CE010196A3CFE83CF10508F047C067
:1027D000FE2CEE2009F4B4CF561330C049132EC09E
:1027E0002091ED0120FD21C0822F82958F70482F0E
:1027F00050E041155105C9F0F80125834F305105CE
:1028000041F08F5F982F9295907F822F8F70892B48
:102810008583C8010E948C1186E0F801A8EEB1E022
:1028200001900D928A95E1F742C086E0F801A8EE8A
:10283000B1E001900D928A95E1F75EC04D875E8709
:102840008D859E850E94FE11811163CF8091ED01DF
:1028500081608093ED01C8010E948C114DC07A2DDA
:10286000B98AA88A6E2D89890E94031286E0F60132
:1028700011928A95E9F71BC0EE2009F461CF4D87CC
:102880005E878D859E850E94FE11F82E882309F4AF
:1028900057CF86E0F801A8EEB1E001900D928A953D
:1028A000E1F788EE91E00E94110E0E9451120E9401
:1028B000431222C04D875E878D859E850E946317D7
:1028C000292F22952F70223028F49F7039F0811122
:1028D00005C00BC0243028F49F7049F4805E883016
:1028E00020F0C8010E948C119F2CF92C05C0F80122
:1028F0009581907F99F7F9CF8F2D61960FB6F89457
:10290000DEBF0FBECDBFDF91CF911F910F91FF9022
:10291000EF90DF90CF90BF90AF909F9008951F935E
:10292000CF93DF93CDB7DEB72C970FB6F894DEBF09
:102930000FBECDBF4F83588769877A878B879C8767
:10294000CE0107960E94BD128823D1F09F81888511
:102950002A853B85232B31F08F3F31F481E09F3F67
:1029600019F403C081E001C080E080FD47C04F81C1
:10297000588569857A858B859C850E9412123EC098
:1029800086E0FE013796DE01119601900D928A9540
:10299000E1F7FF81E8856A857B856115710531F076
:1029A000EF3F31F481E0FF3F19F403C081E001C043
:1029B00080E080FD23C02091B70130E0C90101967D
:1029C000877099274091B60150E084179507F1F17F
:1029D000F983EA837D836C8396E0929FD001939F75
:1029E000B00D1124A854BE4FFE01319601900D92F6
:1029F0009A95E1F78093B7010E94221216E0809128
:102A0000B6019091B701891771F1189FC001112487
:102A100088549E4F0E94BD12882329F1E091B6018F
:102A20001E9FF0011124E854FE4F408151816281C4
:102A30007381848195810E9412128091B60190E089
:102A40000196877099278093B601D9CF0E94D6113D
:102A50001092B7011092B601E8EEF1E086E0DF01D6
:102A60001D928A95E9F72C960FB6F894DEBF0FBE3B
:102A7000CDBFDF91CF911F910895EF92FF920F93F9
:102A80001F93CF93DF938C01892B09F46CC0F12C39
:102A9000EE24E394E8012196F8018491843740F410
:102AA000843008F051C0813081F0823019F15BC070
:102AB000853709F444C0A8F19CE7980F903708F0D7
:102AC00052C08F770E94C10E41C00E5F1F4FFE01A2
:102AD000849190E2980F983050F48770FE2D01C0D9
:102AE000FF0F8A95EAF78F2F0E94E61714C00E9405
:102AF000170E2DC00E5F1F4FFE01849190E2980FBC
:102B0000983060F48770FE2D01C0FF0F8A95EAF7B8
:102B10008F2F0E94EC170E94151819C00E94C10E39
:102B200016C00E5F1F4FFE01C491CC2381F08FE9C8
:102B30009FE00197F1F700C00000C150F6CF0E5F93
:102B40001F4FFE01F49003C00E94170E8E018F2DBF
:102B5000882309F49FCFEFE9FFE03197F1F700C038
:102B600000008150F5CFDF91CF911F910F91FF9021
:102B7000EF900895089508950C94BB150C94BC151E
:102B80000E94BE156093100270931102809312028E
:102B9000909313020C94BC110C94C0150F931F93C7
:102BA0000091100210911102209112023091130233
:102BB000602B712B822B932B1F910F910C94C015BE
:102BC0000F931F9300911002109111022091120295
:102BD0003091130260237123822393231F910F915D
:102BE0000C94C0150F931F930091100210911102C5
:102BF00020911202309113026027712782279327B8
:102C00001F910F910C94C0150C94BB150E940416D3
:102C100060930C0270930D0280930E0290930F024A
:102C20000C94BC1160E070E0CB010C9406160F937D
:102C30001F9341E050E060E070E08A019B0104C016
:102C4000000F111F221F331F8A95D2F7C901B80147
:102C50001F910F910C9406160F931F9341E050E0C3
:102C600060E070E004C0440F551F661F771F8A950F
:102C7000D2F780910C0290910D02A0910E02B091BA
:102C80000F028A019B01082B192B2A2B3B2BC90110
:102C9000B8011F910F910C9406160F931F9341E0FA
:102CA00050E060E070E004C0440F551F661F771FBE
:102CB0008A95D2F7409550956095709580910C0259
:102CC00090910D02A0910E02B0910F028A019B011A
:102CD000082319232A233B23C901B8011F910F910F
:102CE0000C9406160F931F9341E050E060E070E0F3
:102CF00004C0440F551F661F771F8A95D2F7809135
:102D00000C0290910D02A0910E02B0910F028A0167
:102D10009B01082719272A273B27C901B8011F91C2
:102D20000F910C9406160F931F9300910C021091B3
:102D30000D0220910E0230910F02602B712B822B1D
:102D4000932B1F910F910C9406160F931F930091D4
:102D50000C0210910D0220910E0230910F0260239F
:102D60007123822393231F910F910C9406160F93C6
:102D70001F9300910C0210910D0220910E023091D0
:102D80000F0260277127822793271F910F910C94C0
:102D9000061608952CE0929F800D1124E82FE695E9
:102DA000E695E695877051E001C0550F8A95EAF7E0
:102DB00085E0E89FF0011124E251FE4F20E030E071
:102DC00070E04081CB01022E02C0969587950A944F
:102DD000E2F78170819584278523842781932F5F73
:102DE0003F4F2530310569F708952CE0929F800D03
:102DF0001124682F669566956695982F977085E0E3
:102E0000689FB001112440E050E080E0FB01E40F36
:102E1000F51FE251FE4F208130E0092E02C03695A9
:102E200027950A94E2F721703327042E01C0220F60
:102E30000A94EAF7822B4F5F5F4F4530510531F717
:102E40000895BF92CF92DF92EF92FF920F931F935C
:102E5000CF93DF938C01C0900C02D0900D02E090D4
:102E60000E02F0900F028091100290911102A09139
:102E70001202B0911302C82AD92AEA2AFB2ACFE10A
:102E8000D0E0D701C6010C2E04C0B695A795979542
:102E900087950A94D2F780FD04C0219790F7B12C52
:102EA00007C0BC2EB8018C2F0E9499040197A9F38A
:102EB0008B2DDF91CF911F910F91FF90EF90DF90BD
:102EC000CF90BF900895CF93DF93EC010E9421171C
:102ED000BE010E949904DF91CF9108951F93CF9373
:102EE000DF93EB019091B501992321F0CB010E9472
:102EF000631713C0882349F0CB010E942117182FB4
:102F0000682FCE010E94CA1604C0CB010E94F5169C
:102F1000182FBE01812F0E949904DF91CF911F913C
:102F200008958091140285958595859508958091E1
:102F300014028770089590911402977081E009F44B
:102F400080E008959091B70292FB222720F928177C
:102F500051F080FB92F99093B7028091B602909164
:102F6000B7020C94A81808958091B70282FB8827B5
:102F700080F991E089270C94A21781E00C94A217A4
:102F800080E00C94A2178091200208959091200275
:102F9000892B8093200208958095909120028923A7
:102FA00080932002089510922002089590911F02AC
:102FB000892B80931F020895809590911F02892389
:102FC00080931F02089510921F02089590911E028F
:102FD000892B80931E020895809590911E0289236B
:102FE00080931E02089510921E020895809115028A
:102FF000089508950C94F9170C94FA179091B7025C
:1030000092FD08C090911502981721F08093150247
:103010000C94FC17089580911502882329F01092D2
:10302000150280E00C94FC170895E0910801F091DE
:103030000901809120028083E0910801F09109014B
:10304000908180911F02892B8083E0910801F0918B
:103050000901908180911E02892B80838091150245
:10306000882381F0E0910801F09109019081892B7A
:10307000808380910801909109010E943319811188
:103080000E940B1880910801909109010C94AC0CDE
:103090000C94F9179091B70292FD10C098E0899FA7
:1030A00090011124262B209314020E942C1680914B
:1030B00014028595859585950C9448180C942C16CA
:1030C0001092140280E00C9448182091140280950C
:1030D000822380931402982F977041F430E0482F98
:1030E000082E000C550B2417350721F49091B702D8
:1030F00092FF07C08595859585950E944D160C9485
:103100006018089580E0089580E090E00E94B71D67
:1031100021E08A3E9E4F09F020E0822F089582E050
:1031200090E00C94AF1D83E090E00C94AF1DCF9322
:1031300084E090E00E94AF1DC82F82E290E00E94E0
:10314000AF1D2C2F30E0A901582BCA01CF91089553
:10315000CF93C92F682F84E090E00E94BD1D6C2F93
:1031600082E290E0CF910C94BD1DAB01BC018FE0D9
:1031700090E00C94CF1DAB01BC0183E190E00C9476
:10318000CF1D60E070E0CB010C94BB1860E070E0F4
:10319000CB010E94B5180C94C1186AEE7EEF80E056
:1031A00090E00E94DB1D60E082E090E00E94BD1D87
:1031B00060E083E090E00E94BD1D1092100210922A
:1031C0001102109212021092130260E084E090E06B
:1031D0000E94BD1D60E082E290E00E94BD1D60E0A3
:1031E00085E090E00E94BD1D60E086E090E00E94D6
:1031F000BD1D6FEF87E090E00E94BD1D40E050E0F4
:10320000BA0188E090E00E94CF1D60E08DE090E080
:103210000E94BD1D40E050E0BA0188E190E00E94AC
:10322000CF1D60E087E190E00E94BD1D40E050E0CE
:10323000BA018CE190E00E94CF1D60E070E080E276
:1032400090E00E94DB1D40E050E0BA0188E190E090
:103250000E94CF1D0C94C6180C94CD18682F8EE0D8
:1032600090E00C94BD1DFC01329697E080E09150F7
:1032700029F021912223D9F38F5FF9CF0895662396
:1032800049F0FC01329608962191621729F0E8175F
:10329000F907D1F780E0089581E008959C01FC01D1
:1032A00032969FEF80E04191461789F09F3F19F4D5
:1032B000411101C0982F8F5F8630A9F79F3F39F0E9
:1032C000F901E90FF11D97FDFA95628308950895BC
:1032D0009C012A5F3F4FFC014281461301C01282CC
:1032E000019682179307B9F708950C944E190C9420
:1032F0006819029626E0FC0111922A95E9F70895D3
:1033000008950C9480190C948019CF930E9483190E
:103310000E941E070E948119C0E08C2F0E94AD06FA
:10332000892B29F4CF5FC430C1F780E001C081E070
:10333000CF9108950C9480190C949A1980912302CE
:10334000882349F10E949C1980E00E947104109228
:10335000220220E488E190E00FB6F894A8958093CB
:1033600060000FBE2093600083B7817F846083BFBD
:1033700083B7816083BF7894889583B78E7F83BF3E
:103380000FB6F894A89580916000886180936000E2
:10339000109260000FBE08950C9480190E94D611FF
:1033A0000E94A00C0E9471040C94CC191F920F92E1
:1033B0000FB60F9211248F939F93AF93BF93809179
:1033C0002202811113C08091C8029091C902A0917C
:1033D000CA02B091CB024196A11DB11D8093C802D3
:1033E0009093C902A093CA02B093CB02BF91AF9150
:1033F0009F918F910F900FBE0F901F90189582E0B4
:1034000084BD93E095BD9AEF97BD80936E000895BB
:103410002FB7F8948091C8029091C902A091CA0276
:10342000B091CB022FBF08952FB7F8946091C802D6
:103430007091C9028091CA029091CB022FBF08956A
:103440009C014FB7F8948091C8029091C902A09155
:10345000CA02B091CB024FBF821B930B08957894A0
:103460001F920F920FB60F9211248F939F93AF93D9
:10347000BF938091C8029091C902A091CA02B091F5
:10348000CB020196A11DB11D8093C8029093C90281
:10349000A093CA02B093CB02BF91AF919F918F913D
:1034A0000F900FBE0F901F90189598E088E10FB60F
:1034B000F894A895809360000FBE90936000A89543
:1034C000F894D8E0CEEF28E3299320E0299314BEA6
:1034D000FFCF0895909389018093880108950F93F9
:1034E0001F93CF93DF930E94081AEC0190E080E8CD
:1034F0000FB6F89480936100909361000FBE0E9414
:10350000150D0E94661D539A80E0815041F0A895E8
:10351000EFE9FFE03197F1F700C00000F6CF5398D4
:1035200078940E94210D0E94891B0E949B0CFFEF42
:1035300020E732E0F15020403040E1F700C00000C9
:1035400001E01CE08091F302882371F01092F302F5
:103550000E94081AEC0180912302882391F01092B6
:1035600023020E94CE190DC080912302811109C04F
:10357000CE010E94201A069720F0009323020E9499
:103580009E19809123028823F9F00E949E190E94BF
:1035900085198823B9F2F8949AB15B9A892F8C60C7
:1035A0008AB98BB181278BB98FE7E8E3F1E08150CD
:1035B000E040F040E1F700C000008BB181278BB9FB
:1035C0009AB95B987894BECF0E946F1C8091F902E3
:1035D000882329F08091D70284FD0E94270D0E9444
:1035E000301B0E941D0DAECF8091B5020895CF9380
:1035F000DF9300D01F92CDB7DEB7909126029813CB
:1036000007C020912402309125022617370791F038
:1036100080932602709325026093240289837B8322
:103620006A838091100384FF05C063E0CE01019698
:103630000E946B1C0F900F900F90DF91CF91089517
:10364000BC0184E00C94F71ABC0183E00C94F71AD7
:103650002091100324FF03C066E00C946B1C0895B6
:10366000CF93DF93CAE0D0E08091D70284FF18C0E7
:1036700080913202909133029817E1F028E0829F06
:10368000C001112468E08C5C9D4F0E94671C8091F2
:10369000320290E001968F709927809332020AC01F
:1036A0000E946F1C8FE99FE00197F1F700C00000B6
:1036B0002197D1F6DF91CF910895CF93DF93EC015D
:1036C000A0913302B0E0CD0101968F70992720912F
:1036D0003202281779F093E0AA0FBB1F9A95E1F701
:1036E000AC5CBD4F98E0FE0101900D929A95E1F718
:1036F000809333020E946F1C0E94301B88E0FE0101
:10370000AAE2B2E001900D928A95E1F7DF91CF91A4
:1037100008958AE091E00895FC01808180768032EE
:10372000A1F58181813061F484819581892B69F5CE
:103730008AE292E09093F5028093F40288E0089583
:10374000823041F484EB92E09093F5028093F4028E
:1037500081E008958A3021F483818093B40215C0FA
:10376000893099F4828193818115924081F484811A
:103770009581892B61F481E080932902868197816C
:10378000909328028093270202C080E008958FEF73
:1037900008952091270230912802232B71F0209167
:1037A0002902213051F4FC0180818093B5021092EE
:1037B00028021092270281E008958FEF089508955E
:1037C000FC0193819330D9F068F4913081F092300C
:1037D00009F059C084EE92E09093F5028093F402D0
:1037E0008BE30895913249F19232B9F14CC08FE1E7
:1037F00093E09093F5028093F40282E10895828130
:10380000813099F050F08230F1F581E393E09093AC
:10381000F5028093F4028CE0089587E593E090939D
:10382000F5028093F40284E008958FE393E090938F
:10383000F5028093F40286E108958281882329F0BD
:10384000813009F58FE093E002C086EF92E090931B
:10385000F5028093F40289E00895848195810097B0
:1038600051F0019781F48BE593E09093F5028093FA
:10387000F4028BE7089586ED93E09093F502809330
:10388000F40280E4089580E008951F93CF93DF93BE
:10389000162FEA01288124FF05C0398128E8232753
:1038A000298302C02AE52883212FFC01CE0102963C
:1038B000DC0131913D9321501216DCF3612F0E94FF
:1038C00069021C5F1883DF91CF911F91089547ED26
:1038D00052E00C94451C40E153E00C94451CCF93FE
:1038E000DF936091F602635067FD93C08091F2020E
:1038F000CCE0D0E0C81BD109C650DD4F8091F10269
:10390000803120F4CE010E94DF1B81C08D3209F08E
:103910006EC0683009F07BC083EC8093CC028AE5EE
:10392000809315011092F0028881807621F0CE01FB
:103930000E948C1B49C09A811092D5028981811105
:1039400006C01092D60225ED32E082E038C0853004
:1039500019F49093F70230C08630A1F48B81813046
:1039600041F0823031F0833021F0813211F0823227
:1039700021F4CE010E94E01B01C080E090E490930E
:10398000F00222C0883089F0893019F49093F9024E
:1039900013C08A3069F08B3079F48BE48093D802BD
:1039A000809311038093E40207C029EF32E002C044
:1039B00025ED32E081E003C025ED32E080E0309378
:1039C000F5022093F40209C08F3F39F4988197FDE6
:1039D0008E8190E89093F00207C09F81911104C0FE
:1039E0009E81981708F4892F8093140110C080914C
:1039F000F00287FF0CC0CE010E94C91B8F3F21F44B
:103A00008EE18093150103C0811110921401109270
:103A1000F6028091150184FF4CC0809114018F3F04
:103A200009F447C0C82F893008F0C8E08C1B809388
:103A300014019091CC0288E889278093CC02CC2392
:103A400059F18091F4029091F5022091F00226FF45
:103A500012C0ACECB2E02C2FAC014C5C5240FA012D
:103A6000EA0FFB1FE4911196EC93119721501196E8
:103A70002111F5CF08C0EDECF2E0DC012C2F3D91D7
:103A800031932150E1F701962FEF2C0F820F911DFA
:103A90009093F5028093F4026C2F8DEC92E00E94DB
:103AA0006902CC5FCC3019F08FEF80931401C09382
:103AB000150184E199B19C7031F48150D9F71092CD
:103AC000F7021092EF02DF91CF910895CF93DF9329
:103AD000E9E6F0E0808188608083E99AC7EDD2E072
:103AE0008BE48983A0E1B3E011968C931197E3EE08
:103AF000F2E081838AE588838C938083DF91CF9184
:103B0000089597FB072E16F4009407D077FD09D08F
:103B10000E949B1D07FC05D03EF4909581959F4F18
:103B20000895709561957F4F0895EE0FFF1F0590E2
:103B3000F491E02D0994AA1BBB1B51E107C0AA1FF9
:103B4000BB1FA617B70710F0A61BB70B881F991F3E
:103B50005A95A9F780959095BC01CD010895F999E2
:103B6000FECF92BD81BDF89A992780B50895A8E14E
:103B7000B0E042E050E00C94E31D262FF999FECF0F
:103B800092BD81BDF89A019700B4021639F01FBAB0
:103B900020BD0FB6F894FA9AF99A0FBE08950396CD
:103BA000272F0E94BE1D0E94BD1D252F0E94BE1DF5
:103BB000242F0C94BE1D0196272F0E94BE1D0C942D
:103BC000BD1DDC01CB01FC01F999FECF06C0F2BDA1
:103BD000E1BDF89A319600B40D9241505040B8F7CB
:063BE0000895F894FFCFE8
:103BE6002808641E140A321E1602F41A5D1B281BCE
:103BF600241B201BFF5AE200E900EA00B500B600CC
:103C0600B700CD008301CC008A0192019401210204
:103C1600230224022502260227022A02B300B40048
:103C26006F007000818283309796953231606162B1
:103C360063919034353394E200E900EA00B500B6AA
:103C460000B700CD008301CC008A019201940121C6
:103C560002230224022502260227022A02B300B406
:083C6600006F007000818283F1
:00000001FF
